{
  "contractName": "Cashier",
  "abi": [
    {
      "constant": true,
      "inputs": [],
      "name": "issuer",
      "outputs": [
        {
          "name": "",
          "type": "address"
        }
      ],
      "payable": false,
      "stateMutability": "view",
      "type": "function"
    },
    {
      "constant": true,
      "inputs": [],
      "name": "owner",
      "outputs": [
        {
          "name": "",
          "type": "address"
        }
      ],
      "payable": false,
      "stateMutability": "view",
      "type": "function"
    },
    {
      "constant": false,
      "inputs": [
        {
          "name": "newOwner",
          "type": "address"
        }
      ],
      "name": "transferOwnership",
      "outputs": [],
      "payable": false,
      "stateMutability": "nonpayable",
      "type": "function"
    },
    {
      "constant": true,
      "inputs": [],
      "name": "token",
      "outputs": [
        {
          "name": "",
          "type": "address"
        }
      ],
      "payable": false,
      "stateMutability": "view",
      "type": "function"
    },
    {
      "inputs": [
        {
          "name": "_token",
          "type": "address"
        },
        {
          "name": "_issuer",
          "type": "address"
        }
      ],
      "payable": false,
      "stateMutability": "nonpayable",
      "type": "constructor"
    },
    {
      "anonymous": false,
      "inputs": [
        {
          "indexed": true,
          "name": "previousOwner",
          "type": "address"
        },
        {
          "indexed": true,
          "name": "newOwner",
          "type": "address"
        }
      ],
      "name": "OwnershipTransferred",
      "type": "event"
    },
    {
      "constant": false,
      "inputs": [],
      "name": "withdraw",
      "outputs": [],
      "payable": false,
      "stateMutability": "nonpayable",
      "type": "function"
    }
  ],
  "bytecode": "0x6060604052341561000f57600080fd5b604051604080610380833981016040528080519190602001805160008054600160a060020a03191633600160a060020a039081169190911790915590925082161515905061005c57600080fd5b600160a060020a038216151561007157600080fd5b60018054600160a060020a03928316600160a060020a031991821617909155600280549390921692169190911790556102d1806100af6000396000f3006060604052600436106100535763ffffffff60e060020a6000350416631d14384881146100585780633ccfd60b146100875780638da5cb5b1461009c578063f2fde38b146100af578063fc0c546a146100ce575b600080fd5b341561006357600080fd5b61006b6100e1565b604051600160a060020a03909116815260200160405180910390f35b341561009257600080fd5b61009a6100f0565b005b34156100a757600080fd5b61006b6101ec565b34156100ba57600080fd5b61009a600160a060020a03600435166101fb565b34156100d957600080fd5b61006b610296565b600154600160a060020a031681565b6000805433600160a060020a0390811691161461010c57600080fd5b600254600160a060020a03166370a082313060405160e060020a63ffffffff8416028152600160a060020a039091166004820152602401602060405180830381600087803b151561015c57600080fd5b5af1151561016957600080fd5b5050506040518051600254600154919350600160a060020a03908116925063a9059cbb91168360405160e060020a63ffffffff8516028152600160a060020a0390921660048301526024820152604401602060405180830381600087803b15156101d257600080fd5b5af115156101df57600080fd5b5050506040518051505050565b600054600160a060020a031681565b60005433600160a060020a0390811691161461021657600080fd5b600160a060020a038116151561022b57600080fd5b600054600160a060020a0380831691167f8be0079c531659141344cd1fd0a4f28419497f9722a3daafe3b4186f6b6457e060405160405180910390a36000805473ffffffffffffffffffffffffffffffffffffffff1916600160a060020a0392909216919091179055565b600254600160a060020a0316815600a165627a7a72305820b1d7958613ed3af7f50b2c0051e94b633024655b7f226d59d108518407b50ee40029",
  "source": "pragma solidity ^0.4.19;\n\nimport \"zeppelin-solidity/contracts/ownership/Ownable.sol\";\nimport \"zeppelin-solidity/contracts/token/ERC20/ERC20.sol\";\n\ncontract Cashier is Ownable {\n    address public issuer;\n    ERC20 public token;\n\n    function Cashier(ERC20 _token, address _issuer) public {\n        require(_issuer != address(0));\n        require(_token != address(0));\n\n        issuer = _issuer;\n        token = _token;\n    }\n\n    function withdraw() public onlyOwner {\n        uint balance = token.balanceOf(address(this));\n        token.transfer(issuer, balance);\n    }\n}\n",
  "sourcePath": "/Users/koalevskii/ctokens/contracts/contracts/Cashier.sol",
  "compiler": {
    "name": "solc",
    "version": "0.4.21+commit.dfe3193c.Emscripten.clang"
  },
  "schemaVersion": "2.0.0",
  "updatedAt": "2018-06-09T16:30:10.415Z"
}