{
  "contractName": "Collector",
  "abi": [
    {
      "constant": true,
      "inputs": [],
      "name": "MAX_INVESTOR_COUNT",
      "outputs": [
        {
          "name": "",
          "type": "uint256"
        }
      ],
      "payable": false,
      "stateMutability": "view",
      "type": "function"
    },
    {
      "constant": false,
      "inputs": [],
      "name": "unpause",
      "outputs": [],
      "payable": false,
      "stateMutability": "nonpayable",
      "type": "function"
    },
    {
      "constant": true,
      "inputs": [
        {
          "name": "",
          "type": "uint256"
        }
      ],
      "name": "investors",
      "outputs": [
        {
          "name": "",
          "type": "address"
        }
      ],
      "payable": false,
      "stateMutability": "view",
      "type": "function"
    },
    {
      "constant": true,
      "inputs": [],
      "name": "paused",
      "outputs": [
        {
          "name": "",
          "type": "bool"
        }
      ],
      "payable": false,
      "stateMutability": "view",
      "type": "function"
    },
    {
      "constant": true,
      "inputs": [
        {
          "name": "",
          "type": "address"
        }
      ],
      "name": "investorCommissions",
      "outputs": [
        {
          "name": "",
          "type": "uint256"
        }
      ],
      "payable": false,
      "stateMutability": "view",
      "type": "function"
    },
    {
      "constant": false,
      "inputs": [],
      "name": "pause",
      "outputs": [],
      "payable": false,
      "stateMutability": "nonpayable",
      "type": "function"
    },
    {
      "constant": true,
      "inputs": [],
      "name": "owner",
      "outputs": [
        {
          "name": "",
          "type": "address"
        }
      ],
      "payable": false,
      "stateMutability": "view",
      "type": "function"
    },
    {
      "constant": true,
      "inputs": [],
      "name": "PERCENT_DELIMITER",
      "outputs": [
        {
          "name": "",
          "type": "uint256"
        }
      ],
      "payable": false,
      "stateMutability": "view",
      "type": "function"
    },
    {
      "constant": false,
      "inputs": [
        {
          "name": "newOwner",
          "type": "address"
        }
      ],
      "name": "transferOwnership",
      "outputs": [],
      "payable": false,
      "stateMutability": "nonpayable",
      "type": "function"
    },
    {
      "constant": true,
      "inputs": [],
      "name": "token",
      "outputs": [
        {
          "name": "",
          "type": "address"
        }
      ],
      "payable": false,
      "stateMutability": "view",
      "type": "function"
    },
    {
      "inputs": [
        {
          "name": "_token",
          "type": "address"
        },
        {
          "name": "_investors",
          "type": "address[]"
        },
        {
          "name": "_commissions",
          "type": "uint256[]"
        }
      ],
      "payable": false,
      "stateMutability": "nonpayable",
      "type": "constructor"
    },
    {
      "payable": true,
      "stateMutability": "payable",
      "type": "fallback"
    },
    {
      "anonymous": false,
      "inputs": [
        {
          "indexed": true,
          "name": "investor",
          "type": "address"
        },
        {
          "indexed": false,
          "name": "commission",
          "type": "uint256"
        }
      ],
      "name": "InvestorAddition",
      "type": "event"
    },
    {
      "anonymous": false,
      "inputs": [
        {
          "indexed": true,
          "name": "investor",
          "type": "address"
        }
      ],
      "name": "InvestorRemoval",
      "type": "event"
    },
    {
      "anonymous": false,
      "inputs": [],
      "name": "Pause",
      "type": "event"
    },
    {
      "anonymous": false,
      "inputs": [],
      "name": "Unpause",
      "type": "event"
    },
    {
      "anonymous": false,
      "inputs": [
        {
          "indexed": true,
          "name": "previousOwner",
          "type": "address"
        },
        {
          "indexed": true,
          "name": "newOwner",
          "type": "address"
        }
      ],
      "name": "OwnershipTransferred",
      "type": "event"
    },
    {
      "constant": false,
      "inputs": [
        {
          "name": "_investor",
          "type": "address"
        },
        {
          "name": "_commission",
          "type": "uint256"
        }
      ],
      "name": "addInvestor",
      "outputs": [],
      "payable": false,
      "stateMutability": "nonpayable",
      "type": "function"
    },
    {
      "constant": false,
      "inputs": [
        {
          "name": "_investor",
          "type": "address"
        }
      ],
      "name": "removeInvestor",
      "outputs": [],
      "payable": false,
      "stateMutability": "nonpayable",
      "type": "function"
    },
    {
      "constant": true,
      "inputs": [],
      "name": "getInvestors",
      "outputs": [
        {
          "name": "",
          "type": "address[]"
        }
      ],
      "payable": false,
      "stateMutability": "view",
      "type": "function"
    },
    {
      "constant": false,
      "inputs": [],
      "name": "withdrawCommission",
      "outputs": [],
      "payable": false,
      "stateMutability": "nonpayable",
      "type": "function"
    }
  ],
  "bytecode": "0x60606040526000805460a060020a60ff021916905534156200002057600080fd5b60405162000d7038038062000d70833981016040528080519190602001805182019190602001805160008054600160a060020a03191633600160a060020a031617815592019190508251603281111580156200007b57508015155b15156200008757600080fd5b600160a060020a03851615156200009d57600080fd5b8251845114620000ac57600080fd5b60038054600160a060020a031916600160a060020a038716179055600091505b8351821015620002045760016000858481518110620000e757fe5b90602001906020020151600160a060020a031681526020810191909152604001600020541580156200013757508382815181106200012157fe5b90602001906020020151600160a060020a031615155b15156200014357600080fd5b8282815181106200015057fe5b90602001906020020151600160008685815181106200016b57fe5b90602001906020020151600160a060020a031681526020810191909152604001600020558382815181106200019c57fe5b90602001906020020151600160a060020a03167f4d1e61902bd7a6bcf0c7e187dae694128e637d05b95bdac3f3234a27430deb6b848481518110620001dd57fe5b9060200190602002015160405190815260200160405180910390a2600190910190620000cc565b60028480516200021992916020019062000225565b505050505050620002bb565b8280548282559060005260206000209081019282156200027f579160200282015b828111156200027f5782518254600160a060020a031916600160a060020a03919091161782556020929092019160019091019062000246565b506200028d92915062000291565b5090565b620002b891905b808211156200028d578054600160a060020a031916815560010162000298565b90565b610aa580620002cb6000396000f3006060604052600436106100b65763ffffffff60e060020a6000350416632ef4c53b81146100b85780633e25e837146100dd5780633f4ba83a146100f05780633feb5f2b1461010357806342714978146101355780635c975abb146101545780636fe2490b1461017b5780638456cb591461019a5780638da5cb5b146101ad578063b2f5a54c146101c0578063bb2408e614610226578063ec20b45714610239578063f2fde38b1461025b578063fc0c546a1461027a575b005b34156100c357600080fd5b6100cb61028d565b60405190815260200160405180910390f35b34156100e857600080fd5b6100b6610292565b34156100fb57600080fd5b6100b6610495565b341561010e57600080fd5b610119600435610525565b604051600160a060020a03909116815260200160405180910390f35b341561014057600080fd5b6100b6600160a060020a036004351661054d565b341561015f57600080fd5b6101676106bc565b604051901515815260200160405180910390f35b341561018657600080fd5b6100cb600160a060020a03600435166106dd565b34156101a557600080fd5b6100b66106ef565b34156101b857600080fd5b610119610795565b34156101cb57600080fd5b6101d36107a4565b60405160208082528190810183818151815260200191508051906020019060200280838360005b838110156102125780820151838201526020016101fa565b505050509050019250505060405180910390f35b341561023157600080fd5b6100cb61080d565b341561024457600080fd5b6100b6600160a060020a0360043516602435610813565b341561026657600080fd5b6100b6600160a060020a0360043516610929565b341561028557600080fd5b6101196109c4565b603281565b6000805481908190819081908190819033600160a060020a039081169116146102ba57600080fd5b600354600160a060020a03166370a082313060405160e060020a63ffffffff8416028152600160a060020a039091166004820152602401602060405180830381600087803b151561030a57600080fd5b5af1151561031757600080fd5b5050506040518051975050600160a060020a033016319550600086118061033e5750600087115b151561034957600080fd5b600094505b60025485101561048c57600280548690811061036657fe5b6000918252602080832090910154600160a060020a03168083526001909152604082205490955093508611156103ee576103bb6103e86103af6064818a8863ffffffff6109d316565b9063ffffffff610a0916565b9150600160a060020a03841682156108fc0283604051600060405180830381858888f1935050505015156103ee57600080fd5b6000871115610481576104106103e86103af6064818b8863ffffffff6109d316565b600354909150600160a060020a031663a9059cbb858360405160e060020a63ffffffff8516028152600160a060020a0390921660048301526024820152604401602060405180830381600087803b151561046957600080fd5b5af1151561047657600080fd5b505050604051805150505b60019094019361034e565b50505050505050565b60005433600160a060020a039081169116146104b057600080fd5b60005474010000000000000000000000000000000000000000900460ff1615156104d957600080fd5b6000805474ff0000000000000000000000000000000000000000191690557f7805862f689e2f13df9f062ff482ad3ad112aca9e0847911ed832e158c525b3360405160405180910390a1565b600280548290811061053357fe5b600091825260209091200154600160a060020a0316905081565b6000805433600160a060020a0390811691161461056957600080fd5b600160a060020a0382166000908152600160205260408120548391901161058f57600080fd5b600160a060020a038316600090815260016020526040812081905591505b6002546000190182101561066d5782600160a060020a03166002838154811015156105d457fe5b600091825260209091200154600160a060020a031614156106625760028054600019810190811061060157fe5b60009182526020909120015460028054600160a060020a03909216918490811061062757fe5b6000918252602090912001805473ffffffffffffffffffffffffffffffffffffffff1916600160a060020a039290921691909117905561066d565b6001909101906105ad565b6002805460001901906106809082610a20565b5082600160a060020a03167f9b163f7632d913ffa79ff952871f3bff9c44b8c397d2ee63c293153232e4705e60405160405180910390a2505050565b60005474010000000000000000000000000000000000000000900460ff1681565b60016020526000908152604090205481565b60005433600160a060020a0390811691161461070a57600080fd5b60005474010000000000000000000000000000000000000000900460ff161561073257600080fd5b6000805474ff00000000000000000000000000000000000000001916740100000000000000000000000000000000000000001790557f6985a02210a168e66602d3235cb6db0e70f92b3ba4d376a33c0f3d9434bff62560405160405180910390a1565b600054600160a060020a031681565b6107ac610a49565b600280548060200260200160405190810160405280929190818152602001828054801561080257602002820191906000526020600020905b8154600160a060020a031681526001909101906020018083116107e4575b505050505090505b90565b6103e881565b60005433600160a060020a0390811691161461082e57600080fd5b600160a060020a03821660009081526001602052604090205482901561085357600080fd5b82600160a060020a038116151561086957600080fd5b6002546001016032811180159061087f57508015155b151561088a57600080fd5b600160a060020a038516600090815260016020819052604090912085905560028054909181016108ba8382610a20565b506000918252602090912001805473ffffffffffffffffffffffffffffffffffffffff1916600160a060020a0387169081179091557f4d1e61902bd7a6bcf0c7e187dae694128e637d05b95bdac3f3234a27430deb6b8560405190815260200160405180910390a25050505050565b60005433600160a060020a0390811691161461094457600080fd5b600160a060020a038116151561095957600080fd5b600054600160a060020a0380831691167f8be0079c531659141344cd1fd0a4f28419497f9722a3daafe3b4186f6b6457e060405160405180910390a36000805473ffffffffffffffffffffffffffffffffffffffff1916600160a060020a0392909216919091179055565b600354600160a060020a031681565b6000808315156109e65760009150610a02565b508282028284828115156109f657fe5b04146109fe57fe5b8091505b5092915050565b6000808284811515610a1757fe5b04949350505050565b815481835581811511610a4457600083815260209020610a44918101908301610a5b565b505050565b60206040519081016040526000815290565b61080a91905b80821115610a755760008155600101610a61565b50905600a165627a7a723058203a8c76a148465436c8a9e449d7f5961cae418cedd5bab78a8c2dc0871cf2931f0029",
  "source": "pragma solidity ^0.4.19;\n\nimport \"zeppelin-solidity/contracts/ownership/Ownable.sol\";\nimport \"zeppelin-solidity/contracts/lifecycle/Pausable.sol\";\nimport \"zeppelin-solidity/contracts/math/SafeMath.sol\";\nimport \"zeppelin-solidity/contracts/token/ERC20/ERC20.sol\";\n\ncontract Collector is Ownable, Pausable {\n    using SafeMath for uint256;\n\n    uint constant public MAX_INVESTOR_COUNT = 50;\n\n    uint constant public PERCENT_DELIMITER = 10 ** 3;\n\n    event InvestorAddition(address indexed investor, uint commission);\n    event InvestorRemoval(address indexed investor);\n\n    // PERCENT_DELIMITER = 1%\n    mapping (address => uint) public investorCommissions;\n    address[] public investors;\n\n    ERC20 public token;\n\n    modifier investorDoesNotExist(address _investor) {\n        require(investorCommissions[_investor] == 0);\n        _;\n    }\n\n    modifier investorExists(address _investor) {\n        require(investorCommissions[_investor] > 0);\n        _;\n    }\n\n    modifier notNull(address _address) {\n        require(_address != 0);\n        _;\n    }\n\n    modifier validRequirement(uint _investorCount) {\n        require (_investorCount <= MAX_INVESTOR_COUNT && _investorCount != 0);\n        _;\n    }\n\n    function Collector(ERC20 _token, address[] _investors, uint[] _commissions)\n    public\n    validRequirement(_investors.length) {\n        require(_token != address(0));\n        require(_investors.length == _commissions.length);\n\n        token = _token;\n\n        for (uint i=0; i < _investors.length; i++) {\n            require (investorCommissions[_investors[i]] == 0 && _investors[i] != 0);\n            investorCommissions[_investors[i]] = _commissions[i];\n            InvestorAddition(_investors[i], _commissions[i]);\n        }\n        investors = _investors;\n    }\n\n    // need to receive money from trader\n    function () external payable { }\n\n    function addInvestor(address _investor, uint _commission)\n    public\n    onlyOwner\n    investorDoesNotExist(_investor)\n    notNull(_investor)\n    validRequirement(investors.length + 1) {\n        investorCommissions[_investor] = _commission;\n        investors.push(_investor);\n        InvestorAddition(_investor, _commission);\n    }\n\n    function removeInvestor(address _investor)\n    public\n    onlyOwner\n    investorExists(_investor) {\n        delete investorCommissions[_investor];\n        for (uint i=0; i<investors.length - 1; i++) {\n            if (investors[i] == _investor) {\n                investors[i] = investors[investors.length - 1];\n                break;\n            }\n        }\n        investors.length -= 1;\n        InvestorRemoval(_investor);\n    }\n\n    function getInvestors()\n    public\n    view\n    returns (address[]) {\n        return investors;\n    }\n\n    function withdrawCommission()\n    onlyOwner\n    public {\n        uint tokenBalance = token.balanceOf(address(this));\n        uint weiBalance = this.balance;\n        require(weiBalance > 0 || tokenBalance > 0);\n\n        for (uint i = 0; i < investors.length; i++) {\n            address investor = investors[i];\n            uint commission = investorCommissions[investor];\n\n            if(weiBalance > 0) {\n                uint weiValue = weiBalance.mul(commission).div(100).div(PERCENT_DELIMITER);\n                investor.transfer(weiValue);\n            }\n\n            if(tokenBalance > 0) {\n                uint tokenValue = tokenBalance.mul(commission).div(100).div(PERCENT_DELIMITER);\n                token.transfer(investor, tokenValue);\n            }\n        }\n    }\n}\n",
  "sourcePath": "/Users/koalevskii/ctokens/contracts/contracts/Collector.sol",
  "compiler": {
    "name": "solc",
    "version": "0.4.21+commit.dfe3193c.Emscripten.clang"
  },
  "schemaVersion": "2.0.0",
  "updatedAt": "2018-06-09T16:30:10.464Z"
}