{
  "contractName": "Issuer",
  "abi": [
    {
      "constant": true,
      "inputs": [],
      "name": "trader",
      "outputs": [
        {
          "name": "",
          "type": "address"
        }
      ],
      "payable": false,
      "stateMutability": "view",
      "type": "function"
    },
    {
      "constant": true,
      "inputs": [],
      "name": "owner",
      "outputs": [
        {
          "name": "",
          "type": "address"
        }
      ],
      "payable": false,
      "stateMutability": "view",
      "type": "function"
    },
    {
      "constant": false,
      "inputs": [
        {
          "name": "newOwner",
          "type": "address"
        }
      ],
      "name": "transferOwnership",
      "outputs": [],
      "payable": false,
      "stateMutability": "nonpayable",
      "type": "function"
    },
    {
      "constant": true,
      "inputs": [],
      "name": "token",
      "outputs": [
        {
          "name": "",
          "type": "address"
        }
      ],
      "payable": false,
      "stateMutability": "view",
      "type": "function"
    },
    {
      "inputs": [
        {
          "name": "_token",
          "type": "address"
        },
        {
          "name": "_initialSupply",
          "type": "uint256"
        }
      ],
      "payable": false,
      "stateMutability": "nonpayable",
      "type": "constructor"
    },
    {
      "anonymous": false,
      "inputs": [
        {
          "indexed": true,
          "name": "previousOwner",
          "type": "address"
        },
        {
          "indexed": true,
          "name": "newOwner",
          "type": "address"
        }
      ],
      "name": "OwnershipTransferred",
      "type": "event"
    },
    {
      "constant": false,
      "inputs": [
        {
          "name": "_trader",
          "type": "address"
        }
      ],
      "name": "setTrader",
      "outputs": [],
      "payable": false,
      "stateMutability": "nonpayable",
      "type": "function"
    },
    {
      "constant": false,
      "inputs": [
        {
          "name": "_newOwner",
          "type": "address"
        }
      ],
      "name": "withdrawTokenOwnership",
      "outputs": [],
      "payable": false,
      "stateMutability": "nonpayable",
      "type": "function"
    },
    {
      "constant": false,
      "inputs": [],
      "name": "initIssue",
      "outputs": [],
      "payable": false,
      "stateMutability": "nonpayable",
      "type": "function"
    },
    {
      "constant": false,
      "inputs": [
        {
          "name": "_value",
          "type": "uint256"
        }
      ],
      "name": "issue",
      "outputs": [],
      "payable": false,
      "stateMutability": "nonpayable",
      "type": "function"
    },
    {
      "constant": false,
      "inputs": [
        {
          "name": "_value",
          "type": "uint256"
        }
      ],
      "name": "trade",
      "outputs": [],
      "payable": false,
      "stateMutability": "nonpayable",
      "type": "function"
    },
    {
      "constant": false,
      "inputs": [
        {
          "name": "_participants",
          "type": "address[]"
        },
        {
          "name": "_value",
          "type": "uint256"
        }
      ],
      "name": "drop",
      "outputs": [],
      "payable": false,
      "stateMutability": "nonpayable",
      "type": "function"
    }
  ],
  "bytecode": "0x6060604052341561000f57600080fd5b6040516040806106f6833981016040528080519190602001805160008054600160a060020a03191633600160a060020a039081169190911790915590925083161515905061005c57600080fd5b60028054600160a060020a031916600160a060020a0393909316929092179091556003556106678061008f6000396000f30060606040526004361061008a5763ffffffff60e060020a6000350416631758078b811461008f5780633974874b146100be5780634ed221a3146100e25780638da5cb5b14610101578063a6bc18f914610114578063bfb6100214610133578063cc872b6614610146578063df1dd8261461015c578063f2fde38b14610172578063fc0c546a14610191575b600080fd5b341561009a57600080fd5b6100a26101a4565b604051600160a060020a03909116815260200160405180910390f35b34156100c957600080fd5b6100e06024600480358281019291013590356101b3565b005b34156100ed57600080fd5b6100e0600160a060020a036004351661026c565b341561010c57600080fd5b6100a26102ff565b341561011f57600080fd5b6100e0600160a060020a036004351661030e565b341561013e57600080fd5b6100e0610352565b341561015157600080fd5b6100e06004356103e3565b341561016757600080fd5b6100e060043561047b565b341561017d57600080fd5b6100e0600160a060020a0360043516610591565b341561019c57600080fd5b6100a261062c565b600154600160a060020a031681565b60005433600160a060020a039081169116146101ce57600080fd5b600082116101db57600080fd5b600081116101e857600080fd5b600254600160a060020a0316633974874b8484846040518463ffffffff1660e060020a028152600401808060200183815260200182810382528585828181526020019250602002808284378201915050945050505050600060405180830381600087803b151561025757600080fd5b5af1151561026457600080fd5b505050505050565b60005433600160a060020a0390811691161461028757600080fd5b600160a060020a038116151561029c57600080fd5b600254600160a060020a031663f2fde38b8260405160e060020a63ffffffff8416028152600160a060020a039091166004820152602401600060405180830381600087803b15156102ec57600080fd5b5af115156102f957600080fd5b50505050565b600054600160a060020a031681565b600160a060020a038116151561032357600080fd5b6001805473ffffffffffffffffffffffffffffffffffffffff1916600160a060020a0392909216919091179055565b60005433600160a060020a0390811691161461036d57600080fd5b600254600354600160a060020a03909116906340c10f1990309060405160e060020a63ffffffff8516028152600160a060020a0390921660048301526024820152604401602060405180830381600087803b15156103ca57600080fd5b5af115156103d757600080fd5b50505060405180515050565b60005433600160a060020a039081169116146103fe57600080fd5b6000811161040b57600080fd5b600254600160a060020a03166340c10f19308360405160e060020a63ffffffff8516028152600160a060020a0390921660048301526024820152604401602060405180830381600087803b151561046157600080fd5b5af1151561046e57600080fd5b5050506040518051505050565b6000805433600160a060020a0390811691161461049757600080fd5b600082116104a457600080fd5b600254600160a060020a03166370a082313060405160e060020a63ffffffff8416028152600160a060020a039091166004820152602401602060405180830381600087803b15156104f457600080fd5b5af1151561050157600080fd5b50505060405180519150508082111561051957600080fd5b600254600154600160a060020a039182169163a9059cbb91168460405160e060020a63ffffffff8516028152600160a060020a0390921660048301526024820152604401602060405180830381600087803b151561057657600080fd5b5af1151561058357600080fd5b505050604051805150505050565b60005433600160a060020a039081169116146105ac57600080fd5b600160a060020a03811615156105c157600080fd5b600054600160a060020a0380831691167f8be0079c531659141344cd1fd0a4f28419497f9722a3daafe3b4186f6b6457e060405160405180910390a36000805473ffffffffffffffffffffffffffffffffffffffff1916600160a060020a0392909216919091179055565b600254600160a060020a0316815600a165627a7a72305820401ce0023b4feacab4fa922c82ff77f0f3530569e52920742994c9d8f2ac2ae60029",
  "source": "pragma solidity ^0.4.19;\n\nimport \"zeppelin-solidity/contracts/ownership/Ownable.sol\";\nimport \"zeppelin-solidity/contracts/token/ERC20/MintableToken.sol\";\nimport \"./tokens/AirDropToken.sol\";\n\ncontract Issuer is Ownable {\n    address public trader;\n    ERC20Basic public token;\n    uint private initialSupply;\n\n    function Issuer(ERC20Basic _token, uint _initialSupply) public {\n        require(_token != address(0));\n        token = _token;\n\n        initialSupply = _initialSupply;\n    }\n\n    function setTrader(address _trader) external {\n        require(_trader != address(0));\n        trader = _trader;\n    }\n\n    function withdrawTokenOwnership(address _newOwner) external onlyOwner {\n        require(_newOwner != address(0));\n        Ownable(token).transferOwnership(_newOwner);\n    }\n\n    function initIssue() public onlyOwner {\n        MintableToken(token).mint(address(this), initialSupply);\n    }\n\n    function issue(uint _value) public onlyOwner {\n        require(_value > 0);\n        MintableToken(token).mint(address(this), _value);\n    }\n\n    function trade(uint _value) public onlyOwner {\n        require(_value > 0);\n        uint balance = token.balanceOf(address(this));\n        require(_value <= balance);\n\n        token.transfer(trader, _value);\n    }\n\n    function drop(address[] _participants, uint _value) external onlyOwner {\n        require(_participants.length > 0);\n        require(_value > 0);\n\n        AirDropToken(token).drop(_participants, _value);\n    }\n}",
  "sourcePath": "/Users/koalevskii/ctokens/contracts/contracts/Issuer.sol",
  "compiler": {
    "name": "solc",
    "version": "0.4.21+commit.dfe3193c.Emscripten.clang"
  },
  "schemaVersion": "2.0.0",
  "updatedAt": "2018-06-09T16:30:10.449Z"
}