{
  "contractName": "Trader",
  "abi": [
    {
      "constant": true,
      "inputs": [],
      "name": "sellCommission",
      "outputs": [
        {
          "name": "",
          "type": "uint256"
        }
      ],
      "payable": false,
      "stateMutability": "view",
      "type": "function"
    },
    {
      "constant": true,
      "inputs": [],
      "name": "commissionCollected",
      "outputs": [
        {
          "name": "",
          "type": "uint256"
        }
      ],
      "payable": false,
      "stateMutability": "view",
      "type": "function"
    },
    {
      "constant": true,
      "inputs": [],
      "name": "hasClosed",
      "outputs": [
        {
          "name": "",
          "type": "bool"
        }
      ],
      "payable": false,
      "stateMutability": "view",
      "type": "function"
    },
    {
      "constant": true,
      "inputs": [],
      "name": "rate",
      "outputs": [
        {
          "name": "",
          "type": "uint256"
        }
      ],
      "payable": false,
      "stateMutability": "view",
      "type": "function"
    },
    {
      "constant": true,
      "inputs": [],
      "name": "weiRaised",
      "outputs": [
        {
          "name": "",
          "type": "uint256"
        }
      ],
      "payable": false,
      "stateMutability": "view",
      "type": "function"
    },
    {
      "constant": true,
      "inputs": [],
      "name": "closingTime",
      "outputs": [
        {
          "name": "",
          "type": "uint256"
        }
      ],
      "payable": false,
      "stateMutability": "view",
      "type": "function"
    },
    {
      "constant": true,
      "inputs": [],
      "name": "wallet",
      "outputs": [
        {
          "name": "",
          "type": "address"
        }
      ],
      "payable": false,
      "stateMutability": "view",
      "type": "function"
    },
    {
      "constant": true,
      "inputs": [],
      "name": "buyCommission",
      "outputs": [
        {
          "name": "",
          "type": "uint256"
        }
      ],
      "payable": false,
      "stateMutability": "view",
      "type": "function"
    },
    {
      "constant": true,
      "inputs": [],
      "name": "owner",
      "outputs": [
        {
          "name": "",
          "type": "address"
        }
      ],
      "payable": false,
      "stateMutability": "view",
      "type": "function"
    },
    {
      "constant": true,
      "inputs": [],
      "name": "collector",
      "outputs": [
        {
          "name": "",
          "type": "address"
        }
      ],
      "payable": false,
      "stateMutability": "view",
      "type": "function"
    },
    {
      "constant": true,
      "inputs": [],
      "name": "openingTime",
      "outputs": [
        {
          "name": "",
          "type": "uint256"
        }
      ],
      "payable": false,
      "stateMutability": "view",
      "type": "function"
    },
    {
      "constant": true,
      "inputs": [],
      "name": "PERCENT_DELIMITER",
      "outputs": [
        {
          "name": "",
          "type": "uint256"
        }
      ],
      "payable": false,
      "stateMutability": "view",
      "type": "function"
    },
    {
      "constant": false,
      "inputs": [
        {
          "name": "_beneficiary",
          "type": "address"
        }
      ],
      "name": "buyTokens",
      "outputs": [],
      "payable": true,
      "stateMutability": "payable",
      "type": "function"
    },
    {
      "constant": true,
      "inputs": [],
      "name": "cashier",
      "outputs": [
        {
          "name": "",
          "type": "address"
        }
      ],
      "payable": false,
      "stateMutability": "view",
      "type": "function"
    },
    {
      "constant": false,
      "inputs": [
        {
          "name": "newOwner",
          "type": "address"
        }
      ],
      "name": "transferOwnership",
      "outputs": [],
      "payable": false,
      "stateMutability": "nonpayable",
      "type": "function"
    },
    {
      "constant": true,
      "inputs": [],
      "name": "token",
      "outputs": [
        {
          "name": "",
          "type": "address"
        }
      ],
      "payable": false,
      "stateMutability": "view",
      "type": "function"
    },
    {
      "inputs": [
        {
          "name": "_token",
          "type": "address"
        },
        {
          "name": "_buyCommission",
          "type": "uint256"
        },
        {
          "name": "_sellCommission",
          "type": "uint256"
        },
        {
          "name": "_rate",
          "type": "uint256"
        },
        {
          "name": "_collector",
          "type": "address"
        },
        {
          "name": "_cashier",
          "type": "address"
        }
      ],
      "payable": false,
      "stateMutability": "nonpayable",
      "type": "constructor"
    },
    {
      "payable": true,
      "stateMutability": "payable",
      "type": "fallback"
    },
    {
      "anonymous": false,
      "inputs": [
        {
          "indexed": true,
          "name": "previousOwner",
          "type": "address"
        },
        {
          "indexed": true,
          "name": "newOwner",
          "type": "address"
        }
      ],
      "name": "OwnershipTransferred",
      "type": "event"
    },
    {
      "anonymous": false,
      "inputs": [
        {
          "indexed": true,
          "name": "purchaser",
          "type": "address"
        },
        {
          "indexed": true,
          "name": "beneficiary",
          "type": "address"
        },
        {
          "indexed": false,
          "name": "value",
          "type": "uint256"
        },
        {
          "indexed": false,
          "name": "amount",
          "type": "uint256"
        }
      ],
      "name": "TokenPurchase",
      "type": "event"
    },
    {
      "constant": false,
      "inputs": [
        {
          "name": "_commission",
          "type": "uint256"
        }
      ],
      "name": "setBuyCommission",
      "outputs": [],
      "payable": false,
      "stateMutability": "nonpayable",
      "type": "function"
    },
    {
      "constant": false,
      "inputs": [],
      "name": "resetBuyCommission",
      "outputs": [],
      "payable": false,
      "stateMutability": "nonpayable",
      "type": "function"
    },
    {
      "constant": false,
      "inputs": [
        {
          "name": "_commission",
          "type": "uint256"
        }
      ],
      "name": "setSellCommission",
      "outputs": [],
      "payable": false,
      "stateMutability": "nonpayable",
      "type": "function"
    },
    {
      "constant": false,
      "inputs": [],
      "name": "resetSellCommission",
      "outputs": [],
      "payable": false,
      "stateMutability": "nonpayable",
      "type": "function"
    },
    {
      "constant": false,
      "inputs": [
        {
          "name": "_newTime",
          "type": "uint256"
        }
      ],
      "name": "updateClosingTime",
      "outputs": [],
      "payable": false,
      "stateMutability": "nonpayable",
      "type": "function"
    },
    {
      "constant": false,
      "inputs": [],
      "name": "closeTrading",
      "outputs": [],
      "payable": false,
      "stateMutability": "nonpayable",
      "type": "function"
    },
    {
      "constant": false,
      "inputs": [
        {
          "name": "_rate",
          "type": "uint256"
        }
      ],
      "name": "setRate",
      "outputs": [],
      "payable": false,
      "stateMutability": "nonpayable",
      "type": "function"
    },
    {
      "constant": false,
      "inputs": [
        {
          "name": "_amount",
          "type": "uint256"
        }
      ],
      "name": "sellTokens",
      "outputs": [],
      "payable": false,
      "stateMutability": "nonpayable",
      "type": "function"
    },
    {
      "constant": false,
      "inputs": [
        {
          "name": "_sender",
          "type": "address"
        },
        {
          "name": "_amount",
          "type": "uint256"
        }
      ],
      "name": "unsafeSellTokens",
      "outputs": [],
      "payable": false,
      "stateMutability": "nonpayable",
      "type": "function"
    },
    {
      "constant": false,
      "inputs": [
        {
          "name": "_recipient",
          "type": "address"
        },
        {
          "name": "_amount",
          "type": "uint256"
        }
      ],
      "name": "unsafeBuyTokens",
      "outputs": [],
      "payable": false,
      "stateMutability": "nonpayable",
      "type": "function"
    },
    {
      "constant": false,
      "inputs": [
        {
          "name": "_wallet",
          "type": "address"
        }
      ],
      "name": "withdrawFunds",
      "outputs": [],
      "payable": false,
      "stateMutability": "nonpayable",
      "type": "function"
    },
    {
      "constant": false,
      "inputs": [],
      "name": "withdrawCommission",
      "outputs": [],
      "payable": false,
      "stateMutability": "nonpayable",
      "type": "function"
    }
  ],
  "bytecode": "0x6060604052341561000f57600080fd5b60405160c080610fc8833981016040528080519190602001805191906020018051919060200180519190602001805191906020018051915042905062278d0081018430896000831161006057600080fd5b600160a060020a038216151561007557600080fd5b600160a060020a038116151561008a57600080fd5b60029290925560018054600160a060020a03928316600160a060020a03199182161790915560008054929093169116179055428210156100c957600080fd5b818110156100d657600080fd5b60049190915560055560068054600160a060020a03191633600160a060020a03908116919091179091558216151561010d57600080fd5b600160a060020a038116151561012257600080fd5b600a8054600160a060020a03938416600160a060020a031991821617909155600b80549290931691161790555060079190915560085550610e60806101686000396000f3006060604052600436106101505763ffffffff60e060020a6000350416630a766cfa811461015b5780630bdc87121461018057806312e135a0146101935780631515bc2b146101a95780632c4e722e146101d057806334fcf437146101e35780633db891ec146101f95780633e25e8371461021b5780634042b66f1461022e5780634b6753bc14610241578063521eb2731461025457806368742da6146102835780636c11bcd3146102a2578063762a4f35146102b85780638729fff4146102ce5780638d3c5989146102e15780638da5cb5b146102f4578063913e77ad1461030757806396febf901461031a57806397a989551461033c578063b7a8807c1461034f578063bb2408e614610362578063bf44aa7014610375578063c7294ae71461038b578063ec8ac4d81461039e578063ed740e97146103b2578063f2fde38b146103c5578063fc0c546a146103e4575b610159336103f7565b005b341561016657600080fd5b61016e61049f565b60405190815260200160405180910390f35b341561018b57600080fd5b61016e6104a5565b341561019e57600080fd5b6101596004356104ab565b34156101b457600080fd5b6101bc6104d8565b604051901515815260200160405180910390f35b34156101db57600080fd5b61016e6104e0565b34156101ee57600080fd5b6101596004356104e6565b341561020457600080fd5b610159600160a060020a0360043516602435610513565b341561022657600080fd5b6101596106bc565b341561023957600080fd5b61016e610717565b341561024c57600080fd5b61016e61071d565b341561025f57600080fd5b610267610723565b604051600160a060020a03909116815260200160405180910390f35b341561028e57600080fd5b610159600160a060020a0360043516610732565b34156102ad57600080fd5b6101596004356107a4565b34156102c357600080fd5b610159600435610909565b34156102d957600080fd5b61016e610936565b34156102ec57600080fd5b61015961093c565b34156102ff57600080fd5b61026761095e565b341561031257600080fd5b61026761096d565b341561032557600080fd5b610159600160a060020a036004351660243561097c565b341561034757600080fd5b610159610b33565b341561035a57600080fd5b61016e610b54565b341561036d57600080fd5b61016e610b5a565b341561038057600080fd5b610159600435610b60565b341561039657600080fd5b610159610b8d565b610159600160a060020a03600435166103f7565b34156103bd57600080fd5b610267610baf565b34156103d057600080fd5b610159600160a060020a0360043516610bbe565b34156103ef57600080fd5b610267610c59565b3460006104048383610c68565b61040d82610c95565b600354909150610423908363ffffffff610cc016565b6003556104308382610cda565b82600160a060020a031633600160a060020a03167f623b3804fa71d67900d064613da8f94b9617215ee90799290593e1745087ad18848460405191825260208201526040908101905180910390a36104888383610c91565b610490610ce4565b61049a8383610c91565b505050565b60085481565b60095481565b60065433600160a060020a039081169116146104c657600080fd5b600081116104d357600080fd5b600755565b600554421190565b60025481565b60065433600160a060020a0390811691161461050157600080fd5b6000811161050e57600080fd5b600255565b600654600090819033600160a060020a0390811691161461053357600080fd5b6000831161054057600080fd5b600054600160a060020a03166370a082313060405160e060020a63ffffffff8416028152600160a060020a039091166004820152602401602060405180830381600087803b151561059057600080fd5b5af1151561059d57600080fd5b505050604051805184111590506105b357600080fd5b60009150600090506105c760075484610ce6565b92509050600082111561064957600054600a54600160a060020a039182169163a9059cbb91168460405160e060020a63ffffffff8516028152600160a060020a0390921660048301526024820152604401602060405180830381600087803b151561063157600080fd5b5af1151561063e57600080fd5b505050604051805150505b600054600160a060020a031663a9059cbb858360405160e060020a63ffffffff8516028152600160a060020a0390921660048301526024820152604401602060405180830381600087803b151561069f57600080fd5b5af115156106ac57600080fd5b5050506040518051505050505050565b60065433600160a060020a039081169116146106d757600080fd5b600a54600954600160a060020a039091169080156108fc0290604051600060405180830381858888f19350505050151561071057600080fd5b6000600955565b60035481565b60055481565b600154600160a060020a031681565b60065433600160a060020a0390811691161461074d57600080fd5b600154600160a060020a0316151561076457600080fd5b80600160a060020a03166108fc30600160a060020a0316319081150290604051600060405180830381858888f1935050505015156107a157600080fd5b50565b60008082116107b257600080fd5b600054600160a060020a03166370a082313360405160e060020a63ffffffff8416028152600160a060020a039091166004820152602401602060405180830381600087803b151561080257600080fd5b5af1151561080f57600080fd5b5050506040518051831115905061082557600080fd5b60025461083990839063ffffffff610d3716565b905061084760085482610d62565b9050600160a060020a0330163181111561086057600080fd5b600160a060020a03331681156108fc0282604051600060405180830381858888f19350505050151561089157600080fd5b600054600b54600160a060020a039182169163a9059cbb91168460405160e060020a63ffffffff8516028152600160a060020a0390921660048301526024820152604401602060405180830381600087803b15156108ee57600080fd5b5af115156108fb57600080fd5b505050604051805150505050565b60065433600160a060020a0390811691161461092457600080fd5b6000811161093157600080fd5b600555565b60075481565b60065433600160a060020a0390811691161461095757600080fd5b6000600855565b600654600160a060020a031681565b600a54600160a060020a031681565b600654600090819033600160a060020a0390811691161461099c57600080fd5b600083116109a957600080fd5b600054600160a060020a031663dd62ed3e853060405160e060020a63ffffffff8516028152600160a060020a03928316600482015291166024820152604401602060405180830381600087803b1515610a0157600080fd5b5af11515610a0e57600080fd5b50505060405180518411159050610a2457600080fd5b6000915060009050610a3860085484610ce6565b925090506000821115610ac857600054600a54600160a060020a03918216916323b872dd918791168560405160e060020a63ffffffff8616028152600160a060020a0393841660048201529190921660248201526044810191909152606401602060405180830381600087803b1515610ab057600080fd5b5af11515610abd57600080fd5b505050604051805150505b600054600b54600160a060020a03918216916323b872dd918791168460405160e060020a63ffffffff8616028152600160a060020a0393841660048201529190921660248201526044810191909152606401602060405180830381600087803b151561069f57600080fd5b60065433600160a060020a03908116911614610b4e57600080fd5b42600555565b60045481565b6103e881565b60065433600160a060020a03908116911614610b7b57600080fd5b60008111610b8857600080fd5b600855565b60065433600160a060020a03908116911614610ba857600080fd5b6000600755565b600b54600160a060020a031681565b60065433600160a060020a03908116911614610bd957600080fd5b600160a060020a0381161515610bee57600080fd5b600654600160a060020a0380831691167f8be0079c531659141344cd1fd0a4f28419497f9722a3daafe3b4186f6b6457e060405160405180910390a36006805473ffffffffffffffffffffffffffffffffffffffff1916600160a060020a0392909216919091179055565b600054600160a060020a031681565b6004544210158015610c7c57506005544211155b1515610c8757600080fd5b610c918282610d94565b5050565b6000610ca360075483610d62565b9150610cba60025483610db590919063ffffffff16565b92915050565b600082820183811015610ccf57fe5b8091505b5092915050565b610c918282610dcc565b565b600080808080861115610d2d57610d186064610d0c6103e881898b63ffffffff610d3716565b9063ffffffff610db516565b9150610d2a858363ffffffff610e2216565b90505b9590945092505050565b600080831515610d4a5760009150610cd3565b50828202828482811515610d5a57fe5b0414610ccf57fe5b60008080610d708585610ce6565b600954909350909150610d89908363ffffffff610cc016565b600955949350505050565b600160a060020a0382161515610da957600080fd5b801515610c9157600080fd5b6000808284811515610dc357fe5b04949350505050565b600054600160a060020a031663a9059cbb838360405160e060020a63ffffffff8516028152600160a060020a0390921660048301526024820152604401602060405180830381600087803b15156108ee57600080fd5b600082821115610e2e57fe5b509003905600a165627a7a72305820967b6a8b215a308f56949101b73d88b48795112e434dc12f836cd369fb6c37040029",
  "source": "pragma solidity ^0.4.19;\n\nimport \"zeppelin-solidity/contracts/ownership/Ownable.sol\";\nimport \"zeppelin-solidity/contracts/crowdsale/Crowdsale.sol\";\nimport \"zeppelin-solidity/contracts/crowdsale/validation/TimedCrowdsale.sol\";\n\ncontract Trader is TimedCrowdsale, Ownable {\n\n    uint constant public PERCENT_DELIMITER = 10 ** 3;\n\n    uint public buyCommission;\n    uint public sellCommission;\n    uint public commissionCollected;\n\n    address public collector;\n    address public cashier;\n\n    function Trader(ERC20 _token, uint _buyCommission, uint _sellCommission, uint _rate, address _collector, address _cashier)\n    public\n    TimedCrowdsale(now, now + 30 days)\n    Crowdsale(_rate, address(this), _token)\n    {\n        require(_collector != address(0));\n        require(_cashier != address(0));\n\n        collector = _collector;\n        cashier = _cashier;\n\n        buyCommission = _buyCommission;\n        sellCommission = _sellCommission;\n    }\n\n    function setBuyCommission(uint _commission) external onlyOwner {\n        require(_commission > 0);\n        buyCommission = _commission;\n    }\n\n    function resetBuyCommission() external onlyOwner {\n        buyCommission = 0;\n    }\n\n    function setSellCommission(uint _commission) external onlyOwner {\n        require(_commission > 0);\n        sellCommission = _commission;\n    }\n\n    function resetSellCommission() external onlyOwner {\n        sellCommission = 0;\n    }\n\n    function updateClosingTime(uint _newTime) external onlyOwner {\n        require(_newTime > 0);\n\n        closingTime = _newTime;\n    }\n\n    function closeTrading() external onlyOwner {\n        closingTime = now;\n    }\n\n    function setRate(uint _rate) external onlyOwner {\n        require(_rate > 0);\n        rate = _rate;\n    }\n\n    function sellTokens(uint _amount) external {\n        require(_amount > 0);\n        require(_amount <= token.balanceOf(msg.sender));\n\n        uint weiAmount = _amount.mul(rate);\n        weiAmount = _extractAndCollectCommissionInWei(sellCommission, weiAmount);\n        require(weiAmount <= this.balance);\n\n        msg.sender.transfer(weiAmount);\n\n        token.transfer(cashier, _amount);\n    }\n\n    function unsafeSellTokens(address _sender, uint _amount) external onlyOwner {\n        require(_amount > 0);\n        require(_amount <= token.allowance(_sender, address(this)));\n\n        uint commissionValue = 0;\n        uint amountWithoutCommission = 0;\n        (amountWithoutCommission, commissionValue) = _extractCommissionFrom(sellCommission, _amount);\n\n        if(commissionValue > 0) {\n            token.transferFrom(_sender, collector, commissionValue);\n        }\n\n        token.transferFrom(_sender, cashier, amountWithoutCommission);\n    }\n\n    function unsafeBuyTokens(address _recipient, uint _amount) external onlyOwner {\n        require(_amount > 0);\n        require(_amount <= token.balanceOf(address(this)));\n\n        uint commissionValue = 0;\n        uint amountWithoutCommission = 0;\n        (amountWithoutCommission, commissionValue) = _extractCommissionFrom(buyCommission, _amount);\n\n        if(commissionValue > 0) {\n            token.transfer(collector, commissionValue);\n        }\n\n        token.transfer(_recipient, amountWithoutCommission);\n    }\n\n    // sell less tokens on buy commission value\n    function _getTokenAmount(uint256 _weiAmount) internal view returns (uint256) {\n        _weiAmount = _extractAndCollectCommissionInWei(buyCommission, _weiAmount);\n        return _weiAmount.div(rate);\n    }\n\n    function _extractCommissionFrom(uint256 _commission, uint256 _amount) internal returns (uint256, uint256) {\n        uint commissionValue = 0;\n        uint amountWithoutCommission = 0;\n        if(_commission > 0) {\n            commissionValue = _amount.mul(_commission).div(PERCENT_DELIMITER).div(100);\n            amountWithoutCommission = _amount.sub(commissionValue);\n        }\n        return (amountWithoutCommission, commissionValue);\n    }\n\n    function _extractAndCollectCommissionInWei(uint256 _commission, uint256 _amount) internal returns (uint256) {\n        uint commissionValue = 0;\n        uint amountWithoutCommission = 0;\n        (amountWithoutCommission, commissionValue) = _extractCommissionFrom(_commission, _amount);\n        commissionCollected = commissionCollected.add(commissionValue);\n        return amountWithoutCommission;\n    }\n\n    // money should stay on Trader account\n    function _forwardFunds() internal {\n    }\n\n    // move collected money to a wallet\n    function withdrawFunds(address _wallet) public onlyOwner {\n        require(wallet != address(0));\n\n        _wallet.transfer(this.balance);\n    }\n\n    // move collected money to a wallet\n    function withdrawCommission() public onlyOwner {\n        collector.transfer(commissionCollected);\n        commissionCollected = 0;\n    }\n}\n",
  "sourcePath": "/Users/koalevskii/ctokens/contracts/contracts/Trader.sol",
  "compiler": {
    "name": "solc",
    "version": "0.4.21+commit.dfe3193c.Emscripten.clang"
  },
  "schemaVersion": "2.0.0",
  "updatedAt": "2018-06-09T16:30:10.433Z"
}